:02000000AA2B29
:06000600000000000800EC
:10000C000F3083120313FC004730FD00FD0B0C284E
:0A001C00FC0B0C2800000000080097
:0E002600213083120313FD00FD0B1728080084
:1000340083160313AC1B21288312881123288312EF
:10004400881583162C1B2928831208112B28831248
:1000540008158316AC1A31288312881033288312AA
:10006400881483162C1A3928831208103B2883120B
:10007400081460183F280816402808128816032020
:1000840088128316AC194928831288114B288312CD
:10009400881583162C1951288312081153288312AA
:1000A40008158316AC185928831288105B2883120C
:1000B400881483162C18612883120810632883126D
:1000C4000814601867280816682808128816032080
:0E00D4008812601C6F28062070281320080078
:1000E20083120313601083162B08AC001A206014CD
:0200F200080004
:1000F40083120313F801F9011030FC00710DF80D9F
:10010400F90D7408F8027508031C750FF902031839
:1001140092287408F80775080318750FF907031077
:0A012400F00DF10DFC0B802808001F
:10012E0083160313A801A9018316280883126E07EC
:10013E008316AA000A30F4000030F50083126C0812
:10014E00F0006D08F1007A207808F0007908F100CF
:10015E003030F00783162A08840070088000A80A41
:10016E000319A90A0A30F4000030F50083126C0856
:10017E00F0006D08F1007A207008EC007108ED00B7
:10018E0070087104031D9B288316A601A701280879
:10019E00F1002908F200F20CF10CF213720827029A
:1001AE00031DDB2871082602031814292608831262
:1001BE006E07F200720884000008EF00831626080E
:1001CE002802F0002708031C013E2902F10001302D
:1001DE00F002031CF103700883126E0784000008FE
:1001EE00F00072088400700880008316260828022A
:1001FE00F0002708031C013E2902F1000130F00235
:10020E00031CF103700883126E0784006F088000D0
:10021E008316A60A0319A70ACE28280883126E078A
:06022E00840080010800BD
:100234002C29803083120313EC003F29C030EC00DA
:100244003F299430EC003F29D430EC003F29803022
:10025400EC003F29831203136C08013A03191B298C
:100264006C08023A031920296C08033A031923295C
:100274006C08043A0319262929296D03F0006C0837
:10028400F0077008EC0070088316AC001A206010A8
:10029400EF016F086E078400000803195A296F08DC
:1002A4006E07840000088316AB007120EF0A4B2907
:0402B40060140800CA
:1002B800831603178C1C622900005C298312031320
:1002C800660803178D000313670803178C0083164D
:1002D8008C130C150B08F0008B1355308D00AA30C9
:1002E8008D008C14F01B7A298B137B298B170C112A
:0202F8000800FC
:1002FA00013083160313AC001A202008EC002108F1
:10030A00ED006630EE0097205108EC005208ED002F
:10031A00A030EE0097200130EC000130ED002230D1
:10032A00EE001A210130EC000830ED006630EE00D4
:10033A001A210230EC000130ED002A30EE001A21B9
:10034A000230EC000D30ED00A030EE001A2108005A
:10035A005A30831203136407F30065080318013E39
:10036A00F4000330F2007308F0007408F100720818
:10037A000319C429F00DF10D7010FF3EBD29F430A8
:10038A007007F30071080318013E013EF400730878
:10039A00F0007408F100F10CF00CF113711BF11765
:1003AA00F10CF00CF113711BF11770089500CF30A6
:1003BA001705F50003307305F2007208F000F00D1E
:1003CA007010F00D7010F00D7010F00D70107008B4
:1003DA00750497000330FB000830FC007730FD00FD
:0E03EA00FD0BF529FC0BF529FB0BF52908008E
:1003F8005A30831203136407F30065080318013E9B
:10040800F4000330F2007308F0007408F100720879
:100418000319132AF00DF10D7010FF3E0C2AF43069
:100428007007F30071080318013E013EF4007308D9
:10043800F0007408F100F10CF00CF113711BF117C6
:10044800F10CF00CF113711BF11770089B00CF3001
:100458001D05F50003307305F2007208F000F00D79
:100468007010F00D7010F00D7010F00D7010700815
:1004780075049D000330FB000830FC007730FD0058
:0E048800FD0B442AFC0B442AFB0B442A0800FF
:1004960083120313061C602A5308031D5F2ACE0A23
:1004A6004E08023C03185F2A0A30A0070318A10A67
:1004B6007D210130D300CE01622ACE01D301861CF4
:1004C600752A5F08031D742ACF0A4F08023C0318D9
:1004D600742A1430A0070318A10A7D210130DF0019
:1004E600CF01772ACF01DF01061D8A2A5E08031D88
:1004F600892AD00A5008023C0318892A1E30A00710
:100506000318A10A7D210130DE00D0018C2AD0011A
:10051600DE0121085202031D922A20085102031807
:10052600A72A2008D1002108D200E6012108F00000
:10053600F1017008E7005C21013083120313E60025
:0C054600FF305105E7005C217D2108001A
:0E0552008312031355088A0054088200080023
:10056000013083160313AC001A202008EC00210888
:10057000ED005830EE0097200130EC000430ED0023
:100580003F30EE001A210230EC000230ED0037302F
:10059000EE001A210230EC000930ED005830EE0078
:0405A0001A21080014
:1005A40083120313871A042B0630FB001330FC005C
:1005B400AD30FD00FD0BDC2AFC0BDC2AFB0BDC2A36
:1005C40000000000CA01CB0180304B06F0008030EF
:1005D4007002031DEF2A02304A020318042B3C3038
:1005E400E4000030E500AD214B22A630FD00FD0BF8
:1005F400F92A0000E401E501AD214B22CA0A0319DE
:10060400CB0AE62A071A342B0630FB001330FC0011
:10061400AD30FD00FD0B0C2BFC0B0C2BFB0B0C2B42
:1006240000000000CC01CD0180304D06F000803088
:100634007002031D1F2B02304C020318342BE401FB
:10064400E501FC214B22A630FD00FD0B272B000009
:100654003C30E4000030E500FC214B22CC0A0319B5
:06066400CD0A162B080070
:10066A0083120313630803178D0083168C130C146B
:08067A0083120C08F0000800D7
:1006820083160313881208120810881008118811A3
:100692008312881208128811081188100810062087
:1006A20006200620881408148816032088120620C3
:1006B2008816032088120620881603208812062036
:1006C2000810881603208812062088160320881234
:1006D20088108815881603208812062088110814AD
:1006E2008816032088120810881603208812062014
:1006F2008816032088120814881603208812062000
:100702000810881603208812881508158814081402
:0C071200881603208812062060140800DE
:10071E00A9228A110A128000840AD40A0319D50A62
:08072E00F003031D8F2B0800EE
:10073600F9308316031387050C30831297000C30AB
:0E0746009D0007309204F930831692000800DF
:100754006C24073083160313860088014123FF307D
:10076400831687009B23831287010230FB00043029
:10077400FC00BA30FD00FD0BBD2BFC0BBD2BFB0BAD
:10078400BD2B000001300605D3000608DF00DF0C96
:10079400DF130130DF050608DE00DE0CDE13DE0C9D
:1007A400DE130130DE05E301352370080313E20094
:1007B400E1010130E3003523700803136104D10023
:1007C4006208D2000030D2047D21E401E501AD21AC
:1007D4003C30E4000030E500FC21D2224B224030C2
:1007E4000705D600D7010030D70556080130031D90
:1007F4000030D600D7000030D7005608570403193C
:10080400272C560857040319252CB0220B30FB0063
:100814002630FC005D30FD00FD0B0E2CFC0B0E2C75
:10082400FB0B0E2C0000000040300705D600D7015A
:100834000030D70556080130031D0030D600D7001C
:100844000030D700032CA001A1010230FB000430CA
:10085400FC00BA30FD00FD0B2D2CFC0B2D2CFB0BEA
:080864002D2C0000EF2B352CB8
:1008D80020308400313083120313F0003B30D40001
:0808E8000430D5008F23080045
:040876000034003416
:10087A00533463346F34723465343A342034003478
:10088A0048346934673468342034533463346F34F9
:0A089A00723465343A34203400341F
:1008A400533463346F34723465343A34203400344E
:1008B400473441344D34453420344F345634453470
:0608C4005234213400341F
:0408CA0000340034C2
:0408CE0000340034BE
:0208D2000034F0
:0208D4000034EE
:0208D6000034EC
:02400E004A2F37
:00000001FF
